:020000040800F2
:10000000005000204D000008ED000008ED00000841
:10001000ED000008ED000008ED0000080000000001
:10002000000000000000000000000000ED000008DB
:10003000ED00000800000000ED000008ED000008E1
:1000400080B400AF00BFBD4680BC704780B586B0AD
:1000500000AF00237B6000237B6100233B611E4ACD
:100060001E4BD31A9B107B601D4B7B611B4B3B616E
:100070000023FB600CE07B691A683B691A603B69EE
:1000800004333B617B6904337B61FB680133FB60B4
:10009000FA687B689A42EED3124A134BD31A9B102C
:1000A0007B60114B3B610023BB6008E03B69002291
:1000B0001A603B6904333B61BB680133BB60BA68BB
:1000C0007B689A42F2D3FFF7BBFF00F015F800BF40
:1000D0001837BD4680BD00BF08000020000000208A
:1000E00008010008080000200800002080B400AFCC
:1000F00000BFBD4680BC704780B400AFFEE7000083
:08010000005000200500000082
:08010800050000000A000000E0
:0400000508000040AF
:00000001FF
